:03004300020900AF
:030053000209009F
:100900000210F3000211400002112E000211070034
:1009100002103A0002105F00020042000200520082
:100920000208FF0002117E0002117F000210C500C4
:100930000211800002118100021182000211830065
:10094000021184000200520002118500021186008B
:1009500002118700021188000211890002118A0029
:1009600002118B00020052000200520002005200ED
:1009700002118C0002118D0002118E0002118F00F5
:1009800002119000021191000211920002119300D5
:1009900002119400021195000211960002119700B5
:1009A000021198000211990002119A0002119B0095
:0809B00002119C0002119D00E0
:100ECE0090E146E0FBA3E475F0011203D0A9F0FA1D
:100EDE0074201203A890E146E0FBA3E475F0011222
:100EEE0003D0A9F0FA74301203A890E146E0FBA3F8
:100EFE00E475F0011203D0A9F0FA2290E146E0FB6E
:100F0E00A3E0FAA3E0F92225E025E0F9F81204DBCC
:0E0F1E00EF540FFF22AF19AE18AD17AC16221C
:0E0BA8008F198E188D178C168B1A8A1B891CBC
:100BB60090E142EBF0A3EAF0A3E9F0E4FB7A01F955
:100BC600F8D31204CA400890E1417402F0801D1265
:100BD6000F23E4FBFA7901F8D31204CA400890E126
:100BE600417404F0800690E1417408F090E141E020
:100BF600FF14F0EF6039120F23E0120F15E4FEFD2B
:100C0600FC7B09FAF9F8C31204B4120F2390E141F0
:100C1600E05009120F15EF2437FF8007120F15EF6A
:100C26002430FF90E142120EFBEF1203A880BD9024
:0F0C3600E142120F0CE41203A8AB1AAA1BA91C6F
:010C4500228C
:1011520075985090E608E04401F053877FD29922B7
:0D08F10074FFFFFE309806AF997E00C2989C
:0108FE0022D7
:10111B00BF0A083099FDC29975990D3099FDC29996
:03112B008F992277
:101015008B318A328933AB31AA32A93312038F60FF
:10102500130533E5337002053214F912038FFF12ED
:05103500111B80E22206
:1010A90090E10E7430F0A37478F07B017AE1791045
:0C10B900120BA87B017AE1790E021015E1
:0809B8008B3F8A4089418D420A
:1009C000E5427003020A6390E1467401F0A374E10A
:1009D000F0A3740EF0120EF874401203A8120ECE9B
:1009E00074781203A8AE40AF41E4FCFD120F091267
:1009F0000BA81210DE90E147EE8FF01203BA120E30
:100A0000F87420120EF5747C1203A8E490E145F00E
:100A1000120ECE74781203A8AB3F0541E541AA40FF
:100A20007002054014F912038FFFE4FCFDFE120F63
:100A300009120BA890E147E475F0021203BA1542BF
:100A4000E542600C90E145E004F0E0C3940840C04A
:100A5000120F09E41203A87B017AE1790E12101536
:030A60000209C0C8
:010A63002270
:100502006080E000023F01010101010700030002D7
:1005120000001000F9FFFFFFFFFFFFFF0040124045
:10052200002D123F01010101010101070200040037
:1005320000000000FFFFFFFFFFFFFFFF0940124026
:10054200002D363F020F01010101010700010000E9
:1005520000001000FEFFFFFFFFFFFFFF0040124000
:10056200402D123F02053F01010101070200010077
:1005720000000000F5FFFFFFFFFFFFFF09094040F9
:0E058200002D363F47E080C00000FF06E41168
:100D5A0090E60174CEF090E6F574FFF090E080E042
:100D6A0090E6F3F090E081E090E6C3F090E082E054
:100D7A0090E6C1F090E083E090E6C2F090E085E072
:100D8A0090E6C0F090E086E090E6F4F075AF077464
:100D9A00E0F59A7400F59B759DE4E4F59EFF90E6F4
:100DAA007BE090E67CF00FBF80F490E67174FFF070
:100DBA00F5B490E672E04480F043B480000000E4A9
:0B0DCA0090E6C4F000000090E6C5F0C9
:010DD50022FB
:100590006080E087020A023F0101010700010003B9
:1005A00000001000FEFFF9FFFFFFFFFF00401240B8
:1005B000002D123F010101010101010702000400A9
:1005C00000000000FFFFFFFFFFFFFFFF0940124098
:1005D000002D363F023F0101010101070003000029
:1005E00000001000F9FFFFFFFFFFFFFF0040124077
:1005F000002D123F02053F01010101070200010029
:1006000000000000F5FFFFFFFFFFFFFF090940406A
:0E061000002D363F47E107C00000FF06E41151
:100DD60090E60174CEF090E6F574FFF090E107E03E
:100DE60090E6F3F090E108E090E6C3F090E109E0C8
:100DF60090E6C1F090E10AE090E6C2F090E10CE0E6
:100E060090E6C0F090E10DE090E6F4F075AF07745F
:100E1600E0F59A7487F59B759DE4E4F59EFF90E6F0
:100E26007BE090E67CF00FBF80F490E67174FFF0F3
:100E3600F5B490E672E04480F043B480000000E42C
:0B0E460090E6C4F000000090E6C5F04C
:010E5100227E
:100CD200120100020000004047050210000001025C
:100CE20000010A0600020000004001000902200083
:100CF200010100A0320904000002FF000000070504
:100D0200020200020007058602000200090220001A
:100D1200010100A0320904000002FF0000000705E3
:100D2200010240000007058102400000040309049B
:100D320010034300790070007200650073007300B5
:100D4200160345005A002D005500530042002000B2
:080D52004600580032000000C9
:10080E004669726D7761726520666F72205453452A
:10081E004144455820646174612061637175697348
:10082E006974696F6E20626F61726420666F7220E8
:10083E005453452050726F6A6563740A00484553DD
:10084E002D534F20454947204C61626F7261746F82
:10085E006972652064652053797374656D65204EE9
:10086E00756D657269717565732C20323030350A7D
:10087E000044616D69656E204261756D616E6E201A
:10088E00616E64205374657068616E65204D61679A
:10089E006E656E61740A0A005265766973696F6ED1
:1008AE0020003700202D20004E6F7620323320326C
:0708BE00303035000A0A008A
:10072200EF4BFFEE4AFEED49FDEC48FCA804A9059B
:10073200AA06AB0790E782E0FE3395E0FDFCEBEA08
:100742004EFAE94DF9E84CF890E781E0FFEB4F22D1
:10075200AF3AE4F8F9FAAB07AF39AE38AD37AC3699
:10076200120422EF2401FFE43EFEE43DFDE43CFCE2
:10077200AB3EAA3DA93CA83BC30204CA90E78378DA
:1007820010E0FFE4FCFDFE0204EF5391EF90E65D02
:10079200F02290E601E04420F090E6047480F0221A
:1007A200E53E2401F53EE4353DF53DE4353CF53CBE
:1007B200E4353BF53B2290E740F0E490E68AF09086
:1007C200E68B04F0D3225391EF90E65DF02290E69F
:1007D200F1E0FF90E6D17404F02290E68D7401F00E
:1007E2002285080C85090D85100E85110F228510B2
:1007F2000C85110D85080E85090F22E4F53EF53DA5
:0C080200F53CF53B2290E6F1E0F53522D4
:100B07001211527A08790E120BA07A08794B12103B
:100B1700157A08797F120BA07A0879A61210157B2F
:100B2700FF7A0879B01210157BFF7A0879B2121094
:100B3700157BFF7A0879B61210157BFF7A0879C200
:100B470012101590E6007410F000000090E60B7488
:100B570003F000000090E601E04420F000000012DE
:100B670007DC00000090E61074A0F000000090E69B
:100B77001474E2F000000090E61A740DF000000013
:100B870090E6247402F0000000E490E625F00000EF
:100B97000090E6E3F0000000227BFF1210157BFFB8
:010BA700222B
:100A64001207DC000000120D5A12079400000074F3
:100A740002F00000007404F00000007406F00000AE
:100A8400007408F0000000E4F000000090E6CEF0EE
:100A940000000090E6CFF000000090E6D0F00000E7
:100AA4000090E6D104F000000075BB05000000E4EE
:100AB400F51F90E65F7408F090E65EE04408F0E508
:100AC4001F703890E6F17403F0E5BB30E7FB1207C2
:100AD400D0E5BB30E7FB75BB06E5BB30E7FB90E632
:100AE400F17407F0E5BB30E7FB1207D0E5BB30E754
:100AF400FB75BB06E5BB20E7C680F990E65EE054D3
:020B0400F7F008
:010B060022CC
:10061F0012077EC004C005C006C007A378181207D2
:10062F0083D003D002D001D000120722F539EAF5AA
:10063F0038E9F537E8F53690E780E0F53A1207DC50
:10064F00000000120D5A1207940000007402F0000F
:10065F0000007404F00000007406F000000074083D
:10066F00F0000000E4F000000090E6CEF000000083
:10067F0090E6CFF000000090E6D0F000000090E68A
:10068F00D104F000000075BB05000000E53AD394DB
:10069F0004502FE5BB30E7FBE53A1490E6F1F0127A
:1006AF0007FD120752506B12080790E6D1E53AF09A
:1006BF00E5BB30E7FB75BB06E5BB30E7FB1207A2D6
:1006CF0080E01207FD120752504890E6F17403F0D4
:1006DF00E5BB30E7FB1208071207D5E5BB30E7FB98
:1006EF0075BB06E5BB30E7FBE53A1490E6F1F0E5A4
:1006FF00BB30E7FB120807E53A24FC90E6D1F0E5A2
:10070F00BB30E7FB75BB06E5BB30E7FB1207A20268
:02071F0006D4FE
:0107210022B5
:100E5200120DD61207940000007402F00000007414
:100E620004F00000007406F00000007408F00000B6
:100E720000E4F000000090E6F1E0F535E5BB30E774
:100E8200FBE490E6F1F000000090E784E090E6CE0B
:100E9200F000000090E783E090E6CFF000000090C1
:100EA200E782E090E6D0F000000090E781E090E673
:100EB200D1F00000001207DC000000E5BB30E7FBC8
:0B0EC20075BB06000000E5BB30E7FB3D
:010ECD002202
:0D0F7E0090E6A1E020E1F990E780E0602D11
:100F8B0012077EC004C005C006C007A3E0FFE4FC47
:100F9B00FDFE78181204EFD003D002D001D000125E
:0D0FAB000722F534EAF533E9F532E8F531B7
:100FB80090E780E07003020A6490E780E0B40103E0
:070FC800020E5212061F2267
:02004000D322C9
:02004E00D322BB
:02005000D322B9
:0800460090E6BAE0F51ED3229A
:06116A00E51E1207B82289
:0811620090E6BAE0F51DD3226E
:06117000E51D1207B82284
:02117600D32282
:02117800D32280
:02117A00D3227E
:02117C00D3227C
:1010F300C0E0C083C082D201740112078CD082D0B9
:0411030083D0E03283
:10112E00C0E0C083C08274041207C8D082D083D0BE
:02113E00E0329D
:10114000C0E0C083C08274021207C8D082D083D0AE
:02115000E0328B
:10103A00C0E0C083C08290E680E030E7051207E393
:10104A0080031207F05391EF90E65D7410F0D0829E
:05105A00D083D0E0325C
:10110700C0E0C083C082D203740812078CD082D09B
:0411170083D0E0326F
:10105F00C0E0C083C08290E680E030E7051207E36E
:10106F0080031207F05391EF90E65D7420F0D08269
:05107F00D083D0E03237
:01004200328B
:01005200327B
:0108FF0032C6
:01117E00323E
:01117F00323D
:1010C500C0E0C083C082751F015391EF90E65F7445
:0910D50008F0D082D083D0E03293
:01118000323C
:01118100323B
:01118200323A
:011183003239
:011184003238
:011185003237
:011186003236
:011187003235
:011188003234
:011189003233
:01118A003232
:01118B003231
:01118C003230
:01118D00322F
:01118E00322E
:01118F00322D
:01119000322C
:01119100322B
:01119200322A
:011193003229
:011194003228
:011195003227
:011196003226
:011197003225
:011198003224
:011199003223
:01119A003222
:01119B003221
:01119C003220
:01119D00321F
:0A00360000010202030304040505A3
:100F2C00EC4EFEED4F2436F58274003EF583E493CF
:100F3C00FF3395E0FEEF24A1FFEE34E68F82F583BC
:100F4C002290E6BCE0547EFF7E00E0D394807C00CF
:100F5C0022AF28AE27AD26AC25AB24AA23A922A804
:100F6C0021C30204CAF523E43522F522E43521F528
:020F7C00212230
:10020000E4F52CF52BF52AF529C203C200C202C27F
:1002100001120B077E0C7FD28E0A8F0B75120C75A4
:1002200013E475080C7509EE75100D75110E751433
:100230000D75152E90E680E030E70E85080C8509D7
:100240000D85100E85110F800C85100C85110D8504
:10025000080E85090FEE54E07003020335752D007A
:10026000752E807E0C7FD28E2F8F30C374589FFFE7
:10027000740D9ECF2402CF3400FEE48F288E27F524
:1002800026F525F524F523F522F521120F5D501DE5
:10029000E52E2524F582E52D3523F58374CDF0E593
:1002A000242401F524E43523120F7180DEE4F524C3
:1002B000F523F522F521120F5D5028AE23AF24E57A
:1002C000302FF582E52F3EF583E0FDE52E2FF582F8
:1002D000E52D3EF583EDF0EF2401F524E43E120F09
:1002E0007180D3852D0A852E0B74D22480FF740C67
:1002F00034FFFEC3E5139FF513E5129EF512C3E527
:100300000D9FF50DE50C9EF50CC3E50F9FF50FE570
:100310000E9EF50EC3E5099FF509E5089EF508C395
:10032000E5119FF511E5109EF510C3E5159FF51534
:10033000E5149EF514D2E843D82090E668E044091D
:10034000F090E65CE0443DF0D2AF90E680E054F7F8
:10035000F0538EF8C203300105120056C20130037B
:10036000291200405024C20312108420001690E687
:1003700082E030E704E020E1EF90E682E030E6043E
:0F038000E020E0E412000312004E120F7E80C74F
:1000560090E6B9E0700302010714700302015B2405
:10006600FE70030201B624FB700302010114700343
:100076000200FB146073146076240560030201EC31
:1000860012005040030201F890E6BBE024FE602215
:1000960014603324FD601114602224067048E50ABA
:1000A60090E6B3F0E50B8034E51290E6B3F0E51385
:1000B600802AE50C90E6B3F0E50D8020E50E90E68B
:1000C600B3F0E50F801690E6BAE0FF1208C5AA065F
:1000D600A907EA496010EE90E6B3F0EF90E6B4F0B7
:1000E6000201F80201F10201F11211700201F81287
:1000F60011620201F81200460201F812116A0201A9
:10010600F812117640030201F890E6B8E0247F6009
:10011600151460192402703AA200E43325E0FFA208
:1001260002E4334F8018E490E740F08016120F4D3A
:1001360040047D0180027D00120F2CE0540190E7FF
:1001460040F0E4A3F090E68AF090E68B7402F002A9
:1001560001F80201F112117840030201F890E6B8A5
:10016600E024FE6016240260030201F890E6BAE07D
:10017600B40105C2000201F80201F190E6BAE0708E
:100186002D120F4D40047D0180027D00120F2CE0E0
:1001960054FEF090E6BCE05480FF131313541FFF87
:1001A600E0540F2F90E683F0E04420F08044803B3B
:1001B60012117A503D90E6B8E024FE6019240270D0
:1001C6003190E6BAE0B40104D200802690E6BAE0A7
:1001D6006402601E8015120F4D40047D0180027D71
:1001E60000120F2C800812117C500790E6A0E04404
:0901F60001F090E6A0E04480F065
:0101FF0022DD
:0300330002002F99
:04002F0053D8EF3281
:1000030090E682E030E004E020E60B90E682E03008
:10001300E119E030E71590E680E04401F07F147EBB
:0C00230000120FCF90E680E054FEF022A7
:1010840090E682E044C0F090E681F04387010000DE
:041094000000002236
:0208C500A90781
:1008C700AE14AF158F828E83A3E064037017AD015A
:1008D70019ED7001228F828E83E07C002FFDEC3EA4
:0908E700FEAF0580DF7E007F00FA
:0108F00022E5
:100FCF008E318F3290E600E054187012E532240112
:100FDF00FFE43531C313F531EF13F532801590E689
:100FEF0000E05418FFBF100BE53225E0F532E53174
:100FFF0033F531E5321532AE31700215314E6005E1
:06100F0012109880EE2291
:101098007400F58690FDA57C05A3E582458370F96B
:0110A8002225
:03000000020C46A9
:0C0C4600787FE4F6D8FD758142020C8D29
:10038F00BB010689828A83E0225002E722BBFE026C
:09039F00E32289828A83E493229F
:1003A800BB010689828A83F0225002F722BBFE0134
:0203B800F3222E
:1003BA00C5F0F8A3E028F0C5F0F8E58215827002CE
:0603CA001583E038F0226B
:1003D000A3F8E0C5F025F0F0E582158270021583E0
:0603E000E0C838F0E8223D
:1003E60075F008758200EF2FFFEE33FECD33CDCCCE
:1003F60033CCC58233C5829BED9AEC99E582984051
:100406000CF582EE9BFEED9AFDEC99FC0FD5F0D62D
:10041600E4CEFBE4CDFAE4CCF9A88222B800C1B957
:100426000059BA002DEC8BF084CFCECDFCE5F0CB95
:10043600F97818EF2FFFEE33FEED33FDEC33FCEBCE
:1004460033FB10D703994004EB99FB0FD8E5E4F989
:10045600FA227818EF2FFFEE33FEED33FDEC33FC76
:10046600C933C910D7059BE99A4007EC9BFCE99A6A
:10047600F90FD8E0E4C9FAE4CCFB2275F010EF2FAF
:10048600FFEE33FEED33FDCC33CCC833C810D707AF
:100496009BEC9AE899400AED9BFDEC9AFCE899F8EA
:0E04A6000FD5F0DAE4CDFBE4CCFAE4C8F9227D
:1004B400EB9FF5F0EA9E42F0E99D42F0EC6480C8BF
:0604C40064809845F0225F
:1004CA00EB9FF5F0EA9E42F0E99D42F0E89C45F088
:0104DA0022FF
:1004DB00E86010ECA2E713FCED13FDEE13FEEF1337
:0404EB00FFD8F02224
:1004EF00E8600FEFC333FFEE33FEED33FDEC33FC6B
:0304FF00D8F1220F
:1010DE00E4FFFE12038F600C0FEF70010E09E97032
:0510EE00F20A80EF2270
:100C5200020200E493A3F8E493A34003F68001F2B6
:100C620008DFF48029E493A3F85407240CC8C333A3
:100C7200C4540F4420C8834004F456800146F6DF72
:100C8200E4800B0102040810204080900502E47EFB
:100C9200019360BCA3FF543F30E509541FFEE49367
:100CA200A360010ECF54C025E060A840B8E493A32E
:100CB200FAE493A3F8E493A3C8C582C8CAC583CA59
:100CC200F0A3C8C582C8CAC583CADFE9DEE780BE11
:01061E0000DB
:00000001FF
